{
  "transactions": [
    {
      "hash": "0x0bca909ee682d0bfd17fc289df8e649eb0481f80f630883f826a269cfd91ecb1",
      "transactionType": "CREATE",
      "contractName": "ServiceManager",
      "contractAddress": "0x427ee58a6c574032085aeb90dd05deea6f054930",
      "function": null,
      "arguments": [
        "0xdAbdB3Cd346B7D5F5779b0B614EdE1CC9DcBA5b7"
      ],
      "transaction": {
        "from": "0xf39fd6e51aad88f6f4ce6ab8827279cfffb92266",
        "gas": "0x112db2",
        "value": "0x0",
        "input": "0x60a0604052348015600e575f5ffd5b50604051610f34380380610f34833981016040819052602b91603b565b6001600160a01b03166080526066565b5f60208284031215604a575f5ffd5b81516001600160a01b0381168114605f575f5ffd5b9392505050565b608051610ea961008b5f395f818160f60152818161049601526105d80152610ea95ff3fe608060405234801561000f575f5ffd5b50600436106100a6575f3560e01c80638bd34a421161006e5780638bd34a42146101745780638c9bac62146101935780639926ee7d146101b2578063a364f4da146101c5578063d965ba49146101d8578063ec7fbb31146101f8575f5ffd5b80634f60ed57146100aa5780636980a1c9146100dc5780636b3aa72e146100f157806389301dfe146101305780638b00ce7c14610150575b5f5ffd5b6100c96100b8366004610769565b5f9081526004602052604090205490565b6040519081526020015b60405180910390f35b6100ef6100ea366004610825565b61022a565b005b6101187f000000000000000000000000000000000000000000000000000000000000000081565b6040516001600160a01b0390911681526020016100d3565b61014361013e3660046108dc565b6103dd565b6040516100d39190610932565b5f5461015f9063ffffffff1681565b60405163ffffffff90911681526020016100d3565b6100c9610182366004610769565b60046020525f908152604090205481565b6100c96101a1366004610769565b60026020525f908152604090205481565b6100ef6101c036600461094b565b61047f565b6100ef6101d33660046109fe565b610523565b6101eb6101e6366004610a17565b61064f565b6040516100d39190610a85565b61021a6102063660046109fe565b60016020525f908152604090205460ff1681565b60405190151581526020016100d3565b335f9081526001602052604090205460ff166102615760405162461bcd60e51b815260040161025890610ae4565b60405180910390fd5b5f8381526002602090815260409182902054915161028191879101610c0f565b60405160208183030381529060405280519060200120146102d95760405162461bcd60e51b81526020600482015260126024820152710a8c2e6d640d0c2e6d040dad2e6dac2e8c6d60731b6044820152606401610258565b335f908152600360209081526040808320868452909152902080546102fd90610c21565b15905061034c5760405162461bcd60e51b815260206004820152601e60248201527f4f70657261746f722068617320616c726561647920726573706f6e64656400006044820152606401610258565b5f8284604051602001610360929190610c59565b60408051601f198184030181529181528151602092830120335f9081526003845282812088825290935291209091506103998382610cbf565b50837fa1c1e08e8656f0f87dc8491552708c2e9912dcf10dfbe6ff9b6810f61e0b25b88685336040516103ce93929190610d7a565b60405180910390a25050505050565b600360209081525f92835260408084209091529082529020805461040090610c21565b80601f016020809104026020016040519081016040528092919081815260200182805461042c90610c21565b80156104775780601f1061044e57610100808354040283529160200191610477565b820191905f5260205f20905b81548152906001019060200180831161045a57829003601f168201915b505050505081565b604051639926ee7d60e01b81526001600160a01b037f00000000000000000000000000000000000000000000000000000000000000001690639926ee7d906104cd9085908590600401610db7565b5f604051808303815f87803b1580156104e4575f5ffd5b505af11580156104f6573d5f5f3e3d5ffd5b5050506001600160a01b039092165f908152600160208190526040909120805460ff191690911790555050565b335f9081526001602052604090205460ff166105515760405162461bcd60e51b815260040161025890610ae4565b336001600160a01b038216146105b95760405162461bcd60e51b815260206004820152602760248201527f4f6e6c79206f70657261746f722063616e2064657265676973746572207468656044820152666d73656c76657360c81b6064820152608401610258565b6040516351b27a6d60e11b81526001600160a01b0382811660048301527f0000000000000000000000000000000000000000000000000000000000000000169063a364f4da906024015f604051808303815f87803b158015610619575f5ffd5b505af115801561062b573d5f5f3e3d5ffd5b505050506001600160a01b03165f908152600160205260409020805460ff19169055565b61067e6040518060800160405280606081526020015f8152602001606081526020015f63ffffffff1681525090565b5f60405180608001604052808681526020018481526020018581526020014363ffffffff168152509050806040516020016106b99190610a85565b60408051601f1981840301815282825280516020918201205f805463ffffffff9081168252600290935292832055905460608401519116917ff31e2d571d58bbb20a540011b28f8cf71ede1ef396c935c2a4471665bbab681a916107239189918991899190610e01565b60405180910390a25f805463ffffffff16908061073f83610e43565b91906101000a81548163ffffffff021916908363ffffffff16021790555050809150509392505050565b5f60208284031215610779575f5ffd5b5035919050565b634e487b7160e01b5f52604160045260245ffd5b5f82601f8301126107a3575f5ffd5b8135602083015f5f67ffffffffffffffff8411156107c3576107c3610780565b50604051601f19601f85018116603f0116810181811067ffffffffffffffff821117156107f2576107f2610780565b604052838152905080828401871015610809575f5ffd5b838360208301375f602085830101528094505050505092915050565b5f5f5f5f60808587031215610838575f5ffd5b843567ffffffffffffffff81111561084e575f5ffd5b85016080818803121561085f575f5ffd5b935060208501359250604085013567ffffffffffffffff811115610881575f5ffd5b61088d87828801610794565b925050606085013567ffffffffffffffff8111156108a9575f5ffd5b6108b587828801610794565b91505092959194509250565b80356001600160a01b03811681146108d7575f5ffd5b919050565b5f5f604083850312156108ed575f5ffd5b6108f6836108c1565b946020939093013593505050565b5f81518084528060208401602086015e5f602082860101526020601f19601f83011685010191505092915050565b602081525f6109446020830184610904565b9392505050565b5f5f6040838503121561095c575f5ffd5b610965836108c1565b9150602083013567ffffffffffffffff811115610980575f5ffd5b830160608186031215610991575f5ffd5b6040516060810167ffffffffffffffff811182821017156109b4576109b4610780565b604052813567ffffffffffffffff8111156109cd575f5ffd5b6109d987828501610794565b8252506020828101359082015260409182013591810191909152919491935090915050565b5f60208284031215610a0e575f5ffd5b610944826108c1565b5f5f5f60608486031215610a29575f5ffd5b833567ffffffffffffffff811115610a3f575f5ffd5b610a4b86828701610794565b935050602084013567ffffffffffffffff811115610a67575f5ffd5b610a7386828701610794565b93969395505050506040919091013590565b602081525f825160806020840152610aa060a0840182610904565b9050602084015160408401526040840151601f19848303016060850152610ac78282610904565b91505063ffffffff60608501511660808401528091505092915050565b60208082526023908201527f43616c6c6572206973206e6f7420612072656769737465726564206f706572616040820152623a37b960e91b606082015260800190565b5f5f8335601e19843603018112610b3c575f5ffd5b830160208101925035905067ffffffffffffffff811115610b5b575f5ffd5b803603821315610b69575f5ffd5b9250929050565b81835281816020850137505f828201602090810191909152601f909101601f19169091010190565b5f610ba38283610b27565b60808552610bb5608086018284610b70565b602085810135908701529150610bd090506040840184610b27565b8583036040870152610be3838284610b70565b92505050606083013563ffffffff8116808214610bfe575f5ffd5b606095909501949094529392505050565b602081525f6109446020830184610b98565b600181811c90821680610c3557607f821691505b602082108103610c5357634e487b7160e01b5f52602260045260245ffd5b50919050565b5f83518060208601845e9190910191825250602001919050565b601f821115610cba57805f5260205f20601f840160051c81016020851015610c985750805b601f840160051c820191505b81811015610cb7575f8155600101610ca4565b50505b505050565b815167ffffffffffffffff811115610cd957610cd9610780565b610ced81610ce78454610c21565b84610c73565b6020601f821160018114610d1f575f8315610d085750848201515b5f19600385901b1c1916600184901b178455610cb7565b5f84815260208120601f198516915b82811015610d4e5787850151825560209485019460019092019101610d2e565b5084821015610d6b57868401515f19600387901b60f8161c191681555b50505050600190811b01905550565b606081525f610d8c6060830186610b98565b8281036020840152610d9e8186610904565b91505060018060a01b0383166040830152949350505050565b60018060a01b0383168152604060208201525f825160606040840152610de060a0840182610904565b90506020840151606084015260408401516080840152809150509392505050565b608081525f610e136080830187610904565b8281036020840152610e258187610904565b91505083604083015263ffffffff8316606083015295945050505050565b5f63ffffffff821663ffffffff8103610e6a57634e487b7160e01b5f52601160045260245ffd5b6001019291505056fea26469706673582212201aaba1503c9ff6d68dfbc896c52a3964d329fb94e9b21986073d69a54ed2033064736f6c634300081b0033000000000000000000000000dabdb3cd346b7d5f5779b0b614ede1cc9dcba5b7",
        "nonce": "0x345",
        "chainId": "0x1"
      },
      "additionalContracts": [],
      "isFixedGasLimit": false
    },
    {
      "hash": "0xa8be33c4ccf036b95acb5e98b394c8c06d5172cc829898ba4392f0c972cda8e0",
      "transactionType": "CALL",
      "contractName": null,
      "contractAddress": "0x39053d51b77dc0d36036fc1fcc8cb819df8ef37a",
      "function": "registerAsOperator((address,address,uint32),string)",
      "arguments": [
        "(0x14dC79964da2C08b23698B3D3cc7Ca32193d9955, 0x0000000000000000000000000000000000000000, 0)",
        ""
      ],
      "transaction": {
        "from": "0x14dc79964da2c08b23698b3d3cc7ca32193d9955",
        "to": "0x39053d51b77dc0d36036fc1fcc8cb819df8ef37a",
        "gas": "0x29b8c",
        "value": "0x0",
        "input": "0x0f589e5900000000000000000000000014dc79964da2c08b23698b3d3cc7ca32193d99550000000000000000000000000000000000000000000000000000000000000000000000000000000000000000000000000000000000000000000000000000000000000000000000000000000000000000000000000000000000000000000000800000000000000000000000000000000000000000000000000000000000000000",
        "nonce": "0x7",
        "chainId": "0x1"
      },
      "additionalContracts": [],
      "isFixedGasLimit": false
    },
    {
      "hash": "0x31bc67df2313be4d84b02cd761045f988a75444639d8a6e98b498edb7f82f604",
      "transactionType": "CALL",
      "contractName": "ServiceManager",
      "contractAddress": "0x427ee58a6c574032085aeb90dd05deea6f054930",
      "function": "registerOperatorToAVS(address,(bytes,bytes32,uint256))",
      "arguments": [
        "0x14dC79964da2C08b23698B3D3cc7Ca32193d9955",
        "(0x56796958b88beaf9ec2383f26d4d74fac3b2e455d6befdf2953273d3eecec2640f67cdefc36f2a0b9cf6029f839ad8c34ddda484bc097cc7413b16cc6a8f07df1c, 0x26454f022dcef9b7470793f7fdf1edbfdb199075ce1dc91d5ee9db7c2d5231bf, 1736761871)"
      ],
      "transaction": {
        "from": "0x14dc79964da2c08b23698b3d3cc7ca32193d9955",
        "to": "0x427ee58a6c574032085aeb90dd05deea6f054930",
        "gas": "0x286f7",
        "value": "0x0",
        "input": "0x9926ee7d00000000000000000000000014dc79964da2c08b23698b3d3cc7ca32193d99550000000000000000000000000000000000000000000000000000000000000040000000000000000000000000000000000000000000000000000000000000006026454f022dcef9b7470793f7fdf1edbfdb199075ce1dc91d5ee9db7c2d5231bf000000000000000000000000000000000000000000000000000000006784e20f000000000000000000000000000000000000000000000000000000000000004156796958b88beaf9ec2383f26d4d74fac3b2e455d6befdf2953273d3eecec2640f67cdefc36f2a0b9cf6029f839ad8c34ddda484bc097cc7413b16cc6a8f07df1c00000000000000000000000000000000000000000000000000000000000000",
        "nonce": "0x8",
        "chainId": "0x1"
      },
      "additionalContracts": [],
      "isFixedGasLimit": false
    }
  ],
  "receipts": [
    {
      "status": "0x1",
      "cumulativeGasUsed": "0xd36d8",
      "logs": [],
      "logsBloom": "0x00000000000000000000000000000000000000000000000000000000000000000000000000000000000000000000000000000000000000000000000000000000000000000000000000000000000000000000000000000000000000000000000000000000000000000000000000000000000000000000000000000000000000000000000000000000000000000000000000000000000000000000000000000000000000000000000000000000000000000000000000000000000000000000000000000000000000000000000000000000000000000000000000000000000000000000000000000000000000000000000000000000000000000000000000000000",
      "type": "0x2",
      "transactionHash": "0x0bca909ee682d0bfd17fc289df8e649eb0481f80f630883f826a269cfd91ecb1",
      "transactionIndex": "0x0",
      "blockHash": "0xe72b70f432963f6a93ec4238dbe00c755f69557d1ce3a73ffcf99d0c19d0beb8",
      "blockNumber": "0x149cf95",
      "gasUsed": "0xd36d8",
      "effectiveGasPrice": "0xeb051c52",
      "blobGasPrice": "0x4632d75f",
      "from": "0xf39fd6e51aad88f6f4ce6ab8827279cfffb92266",
      "to": null,
      "contractAddress": "0x427ee58a6c574032085aeb90dd05deea6f054930"
    },
    {
      "status": "0x1",
      "cumulativeGasUsed": "0x1c872",
      "logs": [
        {
          "address": "0x39053d51b77dc0d36036fc1fcc8cb819df8ef37a",
          "topics": [
            "0xfebe5cd24b2cbc7b065b9d0fdeb904461e4afcff57dd57acda1e7832031ba7ac",
            "0x00000000000000000000000014dc79964da2c08b23698b3d3cc7ca32193d9955"
          ],
          "data": "0x00000000000000000000000014dc79964da2c08b23698b3d3cc7ca32193d995500000000000000000000000000000000000000000000000000000000000000000000000000000000000000000000000000000000000000000000000000000000",
          "blockHash": "0xd13e3363d4899cae310479674458283c8f1d5173ccaac3e4e00b3fbd1299195f",
          "blockNumber": "0x149cf96",
          "blockTimestamp": "0x6784d413",
          "transactionHash": "0xa8be33c4ccf036b95acb5e98b394c8c06d5172cc829898ba4392f0c972cda8e0",
          "transactionIndex": "0x0",
          "logIndex": "0x0",
          "removed": false
        },
        {
          "address": "0x39053d51b77dc0d36036fc1fcc8cb819df8ef37a",
          "topics": [
            "0xc3ee9f2e5fda98e8066a1f745b2df9285f416fe98cf2559cd21484b3d8743304",
            "0x00000000000000000000000014dc79964da2c08b23698b3d3cc7ca32193d9955",
            "0x00000000000000000000000014dc79964da2c08b23698b3d3cc7ca32193d9955"
          ],
          "data": "0x",
          "blockHash": "0xd13e3363d4899cae310479674458283c8f1d5173ccaac3e4e00b3fbd1299195f",
          "blockNumber": "0x149cf96",
          "blockTimestamp": "0x6784d413",
          "transactionHash": "0xa8be33c4ccf036b95acb5e98b394c8c06d5172cc829898ba4392f0c972cda8e0",
          "transactionIndex": "0x0",
          "logIndex": "0x1",
          "removed": false
        },
        {
          "address": "0x39053d51b77dc0d36036fc1fcc8cb819df8ef37a",
          "topics": [
            "0x8e8485583a2310d41f7c82b9427d0bd49bad74bb9cff9d3402a29d8f9b28a0e2",
            "0x00000000000000000000000014dc79964da2c08b23698b3d3cc7ca32193d9955"
          ],
          "data": "0x00000000000000000000000014dc79964da2c08b23698b3d3cc7ca32193d995500000000000000000000000000000000000000000000000000000000000000000000000000000000000000000000000000000000000000000000000000000000",
          "blockHash": "0xd13e3363d4899cae310479674458283c8f1d5173ccaac3e4e00b3fbd1299195f",
          "blockNumber": "0x149cf96",
          "blockTimestamp": "0x6784d413",
          "transactionHash": "0xa8be33c4ccf036b95acb5e98b394c8c06d5172cc829898ba4392f0c972cda8e0",
          "transactionIndex": "0x0",
          "logIndex": "0x2",
          "removed": false
        },
        {
          "address": "0x39053d51b77dc0d36036fc1fcc8cb819df8ef37a",
          "topics": [
            "0x02a919ed0e2acad1dd90f17ef2fa4ae5462ee1339170034a8531cca4b6708090",
            "0x00000000000000000000000014dc79964da2c08b23698b3d3cc7ca32193d9955"
          ],
          "data": "0x00000000000000000000000000000000000000000000000000000000000000200000000000000000000000000000000000000000000000000000000000000000",
          "blockHash": "0xd13e3363d4899cae310479674458283c8f1d5173ccaac3e4e00b3fbd1299195f",
          "blockNumber": "0x149cf96",
          "blockTimestamp": "0x6784d413",
          "transactionHash": "0xa8be33c4ccf036b95acb5e98b394c8c06d5172cc829898ba4392f0c972cda8e0",
          "transactionIndex": "0x0",
          "logIndex": "0x3",
          "removed": false
        }
      ],
      "logsBloom": "0x00000010008000020100000000000000000000000000000000004001000000000000000000000000000000000000000000000000000000000000000000000000000000000000000000000000000000000010000000000400000000000000000000000000000000000000000000000000000000000000200000000000000000000000000000000000100000000000000000000000000000000000000000000000000000000000000000000000000020002000000000400000000000000000000000000000101000000000000000000000040000020000000000000000000000000000000000000000000000000000000000000080000000000000000000000000",
      "type": "0x2",
      "transactionHash": "0xa8be33c4ccf036b95acb5e98b394c8c06d5172cc829898ba4392f0c972cda8e0",
      "transactionIndex": "0x0",
      "blockHash": "0xd13e3363d4899cae310479674458283c8f1d5173ccaac3e4e00b3fbd1299195f",
      "blockNumber": "0x149cf96",
      "gasUsed": "0x1c872",
      "effectiveGasPrice": "0xcfde0edf",
      "blobGasPrice": "0x3e6614b8",
      "from": "0x14dc79964da2c08b23698b3d3cc7ca32193d9955",
      "to": "0x39053d51b77dc0d36036fc1fcc8cb819df8ef37a",
      "contractAddress": null
    },
    {
      "status": "0x1",
      "cumulativeGasUsed": "0x1d465",
      "logs": [
        {
          "address": "0xdabdb3cd346b7d5f5779b0b614ede1cc9dcba5b7",
          "topics": [
            "0xf0952b1c65271d819d39983d2abb044b9cace59bcc4d4dd389f586ebdcb15b41",
            "0x00000000000000000000000014dc79964da2c08b23698b3d3cc7ca32193d9955",
            "0x000000000000000000000000427ee58a6c574032085aeb90dd05deea6f054930"
          ],
          "data": "0x0000000000000000000000000000000000000000000000000000000000000001",
          "blockHash": "0x4afcd5fcace272e51f11d4314a5943c5da8d53d557cf8fec591b090cdf9f3720",
          "blockNumber": "0x149cf97",
          "blockTimestamp": "0x6784d413",
          "transactionHash": "0x31bc67df2313be4d84b02cd761045f988a75444639d8a6e98b498edb7f82f604",
          "transactionIndex": "0x0",
          "logIndex": "0x0",
          "removed": false
        }
      ],
      "logsBloom": "0x00000000000000000000000000000000000000000000000000000000000000000000000000000000000000000000000000000000000000000000000000020000000000000000000000000000080000000000000000100400000000000000000000200000800000000008000000000000000000000000000000000000000000000000000000000000000000000000000000001000000000000000000000000000000020000000000000000000000000002000000000000000000000000080000000000000000000000000000000000000040000000000000000000000000000000000000000000000000000000000000000000000000000000000000000000000",
      "type": "0x2",
      "transactionHash": "0x31bc67df2313be4d84b02cd761045f988a75444639d8a6e98b498edb7f82f604",
      "transactionIndex": "0x0",
      "blockHash": "0x4afcd5fcace272e51f11d4314a5943c5da8d53d557cf8fec591b090cdf9f3720",
      "blockNumber": "0x149cf97",
      "gasUsed": "0x1d465",
      "effectiveGasPrice": "0xb6a4af5c",
      "blobGasPrice": "0x37772ed0",
      "from": "0x14dc79964da2c08b23698b3d3cc7ca32193d9955",
      "to": "0x427ee58a6c574032085aeb90dd05deea6f054930",
      "contractAddress": null
    }
  ],
  "libraries": [],
  "pending": [],
  "returns": {},
  "timestamp": 1736758302,
  "chain": 1,
  "commit": "e32dfef"
}